:100000000C9434000C943E000C943E000C943E0082
:100010000C943E000C943E000C943E000C943E0068
:100020000C943E000C943E000C943E000C943E0058
:100030000C943E000C943E000C943E000C943E0048
:100040000C943E000C943E000C943E000C943E0038
:100050000C943E000C943E000C943E000C943E0028
:100060000C943E000C943E0011241FBECFEFD8E04C
:10007000DEBFCDBF0E9440000C94A4000C94000091
:100080000EE304B90FE307B9539A52985A9A0E94A3
:100090007C000AE205B94A9B01C0FDCF90E084E1F3
:1000A0000E9495004A9B01C0F6CF4A9BFECF90E08C
:1000B00084E10E94950045E0F1E0E2E455910E9460
:1000C0008000652F617019F00AE205B902C004E1F1
:1000D00005B993E088EE0E9495004A9579F70E9451
:1000E0007C0025E010E215B991E084EF0E949500B4
:1000F00016952A95C1F7CBCF00E008B95B98089513
:10010000EF93FF93F1E0E8E3E50F3327F31F7491DA
:10011000372F3F7338B976FD04C05B98FF91EF919C
:1001200008955B9AFF91EF910895DFE0C0EA21976F
:10013000F1F70197D1F708953F065B4F666D7D0794
:0C0140007F6F090306040200F894FFCF53
:00000001FF
