:100000000C9434000C943E000C943E000C943E0082
:100010000C943E000C943E000C943E000C943E0068
:100020000C943E000C943E000C943E000C943E0058
:100030000C943E000C943E000C943E000C943E0048
:100040000C943E000C943E000C943E000C943E0038
:100050000C943E000C943E000C943E000C943E0028
:100060000C943E000C943E0011241FBECFEFD8E04C
:10007000DEBFCDBF0E9440000C9454000C940000E1
:100080000EE304B910E215B990E08AEF0E944D002A
:1000900016951130C1F710E2F6CFFFE0E0EA319794
:0C00A000F1F70197D1F70895F894FFCF15
:00000001FF
