:100000000C9434000C943E000C943E000C943E0082
:100010000C943E000C943E000C943E000C943E0068
:100020000C943E000C943E000C943E000C943E0058
:100030000C943E000C943E000C943E000C943E0048
:100040000C943E000C943E000C943E000C943E0038
:100050000C943E000C943E000C943E000C943E0028
:100060000C943E000C943E0011241FBECFEFD8E04C
:10007000DEBFCDBF0E9440000C94AB000C9400008A
:100080002FE324B9539A549A52985A9A5B985C98E1
:1000900009E00E946A00003081F034E690E08AE0D6
:1000A0000E94A4004A9B04C03A95C1F70A95F1CF7B
:1000B0005C984A9BFECF09E0ECCF4A9BF9CF5C9A53
:1000C00090E081E00E94A4005C9890E081E00E94B2
:1000D000A400F3CF0030A1F00130B1F00230C1F044
:1000E0000330D1F00430E1F00530F1F0063001F1D9
:1000F000073011F1083021F12FE225B95B9A0895FC
:100100002FE325B95B98089526E025B95B980895FB
:100110002BE125B95B9A08952FE025B95B9A0895E4
:1001200026E225B95B9A08952DE225B95B9A0895D8
:100130002DE325B95B9A089527E025B95B980895CA
:100140002FE325B95B9A0895FFE0E0EA3197F1F7D4
:0A0150000197D1F70895F894FFCF4E
:00000001FF
