:100000000C9434000C943E000C943E000C943E0082
:100010000C943E000C943E000C943E000C943E0068
:100020000C943E000C943E000C943E000C943E0058
:100030000C943E000C943E000C943E000C943E0048
:100040000C943E000C943E000C943E000C943E0038
:100050000C943E000C943E000C943E000C943E0028
:100060000C943E000C943E0011241FBECFEFD8E04C
:10007000DEBFCDBF0E9440000C9461000C940000D4
:100080000EE304B952985A9A1AE215B94A9B01C074
:10009000FDCF90E084E10E945A004A9B01C0F6CF58
:1000A0002EE3122715B94A9BFECF90E084E10E940F
:1000B0005A00ECCFFFE0E0EA3197F1F70197D1F772
:0600C0000895F894FFCF43
:00000001FF
